:100000000C9434000C943E000C943E000C943E0082
:100010000C943E000C943E000C943E000C943E0068
:100020000C943E000C943E000C943E000C943E0058
:100030000C943E000C943E000C943E000C943E0048
:100040000C943E000C943E000C943E000C943E0038
:100050000C943E000C943E000C943E000C943E0028
:100060000C943E000C943E0011241FBECFEFD8E04C
:10007000DEBFCDBF0E9440000C945A000C940000DB
:10008000209A50985198589A599A40E951E04899C5
:1000900005C0499903C0289A489BFBCF289820E0C7
:1000A00030E0CA010197F1F72F5F3F4F283C31053F
:0800B000C1F7EDCFF894FFCF7A
:00000001FF
